{
  "_format": "hh-sol-artifact-1",
  "contractName": "TokenFactory",
  "sourceName": "contracts/TokenFactory.sol",
  "abi": [
    {
      "anonymous": false,
      "inputs": [
        {
          "indexed": true,
          "internalType": "address",
          "name": "tokenAddress",
          "type": "address"
        },
        {
          "indexed": true,
          "internalType": "address",
          "name": "owner",
          "type": "address"
        },
        {
          "indexed": false,
          "internalType": "string",
          "name": "name",
          "type": "string"
        },
        {
          "indexed": false,
          "internalType": "string",
          "name": "symbol",
          "type": "string"
        },
        {
          "indexed": false,
          "internalType": "uint256",
          "name": "supply",
          "type": "uint256"
        },
        {
          "indexed": false,
          "internalType": "bool",
          "name": "mintingDisabled",
          "type": "bool"
        }
      ],
      "name": "TokenCreated",
      "type": "event"
    },
    {
      "inputs": [
        {
          "internalType": "uint256",
          "name": "",
          "type": "uint256"
        }
      ],
      "name": "allTokens",
      "outputs": [
        {
          "internalType": "address",
          "name": "",
          "type": "address"
        }
      ],
      "stateMutability": "view",
      "type": "function"
    },
    {
      "inputs": [
        {
          "internalType": "string",
          "name": "name",
          "type": "string"
        },
        {
          "internalType": "string",
          "name": "symbol",
          "type": "string"
        },
        {
          "internalType": "uint256",
          "name": "initialSupply",
          "type": "uint256"
        },
        {
          "internalType": "bool",
          "name": "_disableMintingImmediately",
          "type": "bool"
        }
      ],
      "name": "createToken",
      "outputs": [],
      "stateMutability": "payable",
      "type": "function"
    },
    {
      "inputs": [],
      "name": "getAllTokens",
      "outputs": [
        {
          "internalType": "address[]",
          "name": "",
          "type": "address[]"
        }
      ],
      "stateMutability": "view",
      "type": "function"
    }
  ],
  "bytecode": "0x608060405234801561001057600080fd5b50612dd5806100206000396000f3fe608060405260043610620000385760003560e01c80632a5c792a146200003d578063634282af146200006d5780638e2bcfa414620000b1575b600080fd5b3480156200004a57600080fd5b5062000055620000d1565b6040516200006491906200050e565b60405180910390f35b3480156200007a57600080fd5b5062000099600480360381019062000093919062000581565b62000161565b604051620000a89190620005c4565b60405180910390f35b620000cf6004803603810190620000c9919062000780565b620001a1565b005b606060008054806020026020016040519081016040528092919081815260200182805480156200015757602002820191906000526020600020905b8160009054906101000a900473ffffffffffffffffffffffffffffffffffffffff1673ffffffffffffffffffffffffffffffffffffffff16815260200190600101908083116200010c575b5050505050905090565b600081815481106200017257600080fd5b906000526020600020016000915054906101000a900473ffffffffffffffffffffffffffffffffffffffff1681565b6000674563918244f4000090508115620001ce57674563918244f4000081620001cb91906200085f565b90505b80341462000213576040517f08c379a00000000000000000000000000000000000000000000000000000000081526004016200020a9062000921565b60405180910390fd5b600073ff2107f01fd1e3c7812de5b86b71e09b7d7a5dd973ffffffffffffffffffffffffffffffffffffffff16346040516200024f9062000978565b60006040518083038185875af1925050503d80600081146200028e576040519150601f19603f3d011682016040523d82523d6000602084013e62000293565b606091505b5050905080620002da576040517f08c379a0000000000000000000000000000000000000000000000000000000008152600401620002d19062000a05565b60405180910390fd5b60008686863387604051620002ef90620003fe565b620002ff95949392919062000ac1565b604051809103906000f0801580156200031c573d6000803e3d6000fd5b50905060008190506000819080600181540180825580915050600190039060005260206000200160009091909190916101000a81548173ffffffffffffffffffffffffffffffffffffffff021916908373ffffffffffffffffffffffffffffffffffffffff1602179055503373ffffffffffffffffffffffffffffffffffffffff168173ffffffffffffffffffffffffffffffffffffffff167fbf3af4428cc21d341d32afdb4ba5baf47ee5f66d5116b9018957ae6691b7ab7d8a8a8a8a604051620003ec949392919062000b2c565b60405180910390a35050505050505050565b6122188062000b8883390190565b600081519050919050565b600082825260208201905092915050565b6000819050602082019050919050565b600073ffffffffffffffffffffffffffffffffffffffff82169050919050565b6000620004658262000438565b9050919050565b620004778162000458565b82525050565b60006200048b83836200046c565b60208301905092915050565b6000602082019050919050565b6000620004b1826200040c565b620004bd818562000417565b9350620004ca8362000428565b8060005b8381101562000501578151620004e588826200047d565b9750620004f28362000497565b925050600181019050620004ce565b5085935050505092915050565b600060208201905081810360008301526200052a8184620004a4565b905092915050565b6000604051905090565b600080fd5b600080fd5b6000819050919050565b6200055b8162000546565b81146200056757600080fd5b50565b6000813590506200057b8162000550565b92915050565b6000602082840312156200059a57620005996200053c565b5b6000620005aa848285016200056a565b91505092915050565b620005be8162000458565b82525050565b6000602082019050620005db6000830184620005b3565b92915050565b600080fd5b600080fd5b6000601f19601f8301169050919050565b7f4e487b7100000000000000000000000000000000000000000000000000000000600052604160045260246000fd5b6200063682620005eb565b810181811067ffffffffffffffff82111715620006585762000657620005fc565b5b80604052505050565b60006200066d62000532565b90506200067b82826200062b565b919050565b600067ffffffffffffffff8211156200069e576200069d620005fc565b5b620006a982620005eb565b9050602081019050919050565b82818337600083830152505050565b6000620006dc620006d68462000680565b62000661565b905082815260208101848484011115620006fb57620006fa620005e6565b5b62000708848285620006b6565b509392505050565b600082601f830112620007285762000727620005e1565b5b81356200073a848260208601620006c5565b91505092915050565b60008115159050919050565b6200075a8162000743565b81146200076657600080fd5b50565b6000813590506200077a816200074f565b92915050565b600080600080608085870312156200079d576200079c6200053c565b5b600085013567ffffffffffffffff811115620007be57620007bd62000541565b5b620007cc8782880162000710565b945050602085013567ffffffffffffffff811115620007f057620007ef62000541565b5b620007fe8782880162000710565b935050604062000811878288016200056a565b9250506060620008248782880162000769565b91505092959194509250565b7f4e487b7100000000000000000000000000000000000000000000000000000000600052601160045260246000fd5b60006200086c8262000546565b9150620008798362000546565b925082820190508082111562000894576200089362000830565b5b92915050565b600082825260208201905092915050565b7f546f6b656e466163746f72793a20496e636f727265637420746f74616c20666560008201527f652073656e740000000000000000000000000000000000000000000000000000602082015250565b6000620009096026836200089a565b91506200091682620008ab565b604082019050919050565b600060208201905081810360008301526200093c81620008fa565b9050919050565b600081905092915050565b50565b60006200096060008362000943565b91506200096d826200094e565b600082019050919050565b6000620009858262000951565b9150819050919050565b7f546f6b656e466163746f72793a20466565207472616e73666572206661696c6560008201527f6400000000000000000000000000000000000000000000000000000000000000602082015250565b6000620009ed6021836200089a565b9150620009fa826200098f565b604082019050919050565b6000602082019050818103600083015262000a2081620009de565b9050919050565b600081519050919050565b60005b8381101562000a5257808201518184015260208101905062000a35565b60008484015250505050565b600062000a6b8262000a27565b62000a7781856200089a565b935062000a8981856020860162000a32565b62000a9481620005eb565b840191505092915050565b62000aaa8162000546565b82525050565b62000abb8162000743565b82525050565b600060a082019050818103600083015262000add818862000a5e565b9050818103602083015262000af3818762000a5e565b905062000b04604083018662000a9f565b62000b136060830185620005b3565b62000b22608083018462000ab0565b9695505050505050565b6000608082019050818103600083015262000b48818762000a5e565b9050818103602083015262000b5e818662000a5e565b905062000b6f604083018562000a9f565b62000b7e606083018462000ab0565b9594505050505056fe60806040526000600560146101000a81548160ff0219169083151502179055506000600560156101000a81548160ff0219169083151502179055503480156200004757600080fd5b50604051620022183803806200221883398181016040528101906200006d919062000798565b818585816003908162000081919062000a9f565b50806004908162000093919062000a9f565b505050600073ffffffffffffffffffffffffffffffffffffffff168173ffffffffffffffffffffffffffffffffffffffff16036200010b5760006040517f1e4fbdf700000000000000000000000000000000000000000000000000000000815260040162000102919062000b97565b60405180910390fd5b6200011c816200013a60201b60201c565b506200012f82846200020060201b60201c565b505050505062000d32565b6000600560009054906101000a900473ffffffffffffffffffffffffffffffffffffffff16905081600560006101000a81548173ffffffffffffffffffffffffffffffffffffffff021916908373ffffffffffffffffffffffffffffffffffffffff1602179055508173ffffffffffffffffffffffffffffffffffffffff168173ffffffffffffffffffffffffffffffffffffffff167f8be0079c531659141344cd1fd0a4f28419497f9722a3daafe3b4186f6b6457e060405160405180910390a35050565b600073ffffffffffffffffffffffffffffffffffffffff168273ffffffffffffffffffffffffffffffffffffffff1603620002755760006040517fec442f050000000000000000000000000000000000000000000000000000000081526004016200026c919062000b97565b60405180910390fd5b62000289600083836200028d60201b60201c565b5050565b600560149054906101000a900460ff1615620002e0576040517f08c379a0000000000000000000000000000000000000000000000000000000008152600401620002d79062000c3b565b60405180910390fd5b620002f3838383620002f860201b60201c565b505050565b600073ffffffffffffffffffffffffffffffffffffffff168373ffffffffffffffffffffffffffffffffffffffff16036200034e57806002600082825462000341919062000c8c565b9250508190555062000424565b60008060008573ffffffffffffffffffffffffffffffffffffffff1673ffffffffffffffffffffffffffffffffffffffff16815260200190815260200160002054905081811015620003dd578381836040517fe450d38c000000000000000000000000000000000000000000000000000000008152600401620003d49392919062000cd8565b60405180910390fd5b8181036000808673ffffffffffffffffffffffffffffffffffffffff1673ffffffffffffffffffffffffffffffffffffffff16815260200190815260200160002081905550505b600073ffffffffffffffffffffffffffffffffffffffff168273ffffffffffffffffffffffffffffffffffffffff16036200046f5780600260008282540392505081905550620004bc565b806000808473ffffffffffffffffffffffffffffffffffffffff1673ffffffffffffffffffffffffffffffffffffffff168152602001908152602001600020600082825401925050819055505b8173ffffffffffffffffffffffffffffffffffffffff168373ffffffffffffffffffffffffffffffffffffffff167fddf252ad1be2c89b69c2b068fc378daa952ba7f163c4a11628f55a4df523b3ef836040516200051b919062000d15565b60405180910390a3505050565b6000604051905090565b600080fd5b600080fd5b600080fd5b600080fd5b6000601f19601f8301169050919050565b7f4e487b7100000000000000000000000000000000000000000000000000000000600052604160045260246000fd5b620005918262000546565b810181811067ffffffffffffffff82111715620005b357620005b262000557565b5b80604052505050565b6000620005c862000528565b9050620005d6828262000586565b919050565b600067ffffffffffffffff821115620005f957620005f862000557565b5b620006048262000546565b9050602081019050919050565b60005b838110156200063157808201518184015260208101905062000614565b60008484015250505050565b6000620006546200064e84620005db565b620005bc565b90508281526020810184848401111562000673576200067262000541565b5b6200068084828562000611565b509392505050565b600082601f830112620006a0576200069f6200053c565b5b8151620006b28482602086016200063d565b91505092915050565b6000819050919050565b620006d081620006bb565b8114620006dc57600080fd5b50565b600081519050620006f081620006c5565b92915050565b600073ffffffffffffffffffffffffffffffffffffffff82169050919050565b60006200072382620006f6565b9050919050565b620007358162000716565b81146200074157600080fd5b50565b60008151905062000755816200072a565b92915050565b60008115159050919050565b62000772816200075b565b81146200077e57600080fd5b50565b600081519050620007928162000767565b92915050565b600080600080600060a08688031215620007b757620007b662000532565b5b600086015167ffffffffffffffff811115620007d857620007d762000537565b5b620007e68882890162000688565b955050602086015167ffffffffffffffff8111156200080a576200080962000537565b5b620008188882890162000688565b94505060406200082b88828901620006df565b93505060606200083e8882890162000744565b9250506080620008518882890162000781565b9150509295509295909350565b600081519050919050565b7f4e487b7100000000000000000000000000000000000000000000000000000000600052602260045260246000fd5b60006002820490506001821680620008b157607f821691505b602082108103620008c757620008c662000869565b5b50919050565b60008190508160005260206000209050919050565b60006020601f8301049050919050565b600082821b905092915050565b600060088302620009317fffffffffffffffffffffffffffffffffffffffffffffffffffffffffffffffff82620008f2565b6200093d8683620008f2565b95508019841693508086168417925050509392505050565b6000819050919050565b6000620009806200097a6200097484620006bb565b62000955565b620006bb565b9050919050565b6000819050919050565b6200099c836200095f565b620009b4620009ab8262000987565b848454620008ff565b825550505050565b600090565b620009cb620009bc565b620009d881848462000991565b505050565b5b8181101562000a0057620009f4600082620009c1565b600181019050620009de565b5050565b601f82111562000a4f5762000a1981620008cd565b62000a2484620008e2565b8101602085101562000a34578190505b62000a4c62000a4385620008e2565b830182620009dd565b50505b505050565b600082821c905092915050565b600062000a746000198460080262000a54565b1980831691505092915050565b600062000a8f838362000a61565b9150826002028217905092915050565b62000aaa826200085e565b67ffffffffffffffff81111562000ac65762000ac562000557565b5b62000ad2825462000898565b62000adf82828562000a04565b600060209050601f83116001811462000b17576000841562000b02578287015190505b62000b0e858262000a81565b86555062000b7e565b601f19841662000b2786620008cd565b60005b8281101562000b515784890151825560018201915060208501945060208101905062000b2a565b8683101562000b71578489015162000b6d601f89168262000a61565b8355505b6001600288020188555050505b505050505050565b62000b918162000716565b82525050565b600060208201905062000bae600083018462000b86565b92915050565b600082825260208201905092915050565b7f4d79546f6b656e3a205472616e7366657273206172652063757272656e746c7960008201527f2066726f7a656e00000000000000000000000000000000000000000000000000602082015250565b600062000c2360278362000bb4565b915062000c308262000bc5565b604082019050919050565b6000602082019050818103600083015262000c568162000c14565b9050919050565b7f4e487b7100000000000000000000000000000000000000000000000000000000600052601160045260246000fd5b600062000c9982620006bb565b915062000ca683620006bb565b925082820190508082111562000cc15762000cc062000c5d565b5b92915050565b62000cd281620006bb565b82525050565b600060608201905062000cef600083018662000b86565b62000cfe602083018562000cc7565b62000d0d604083018462000cc7565b949350505050565b600060208201905062000d2c600083018462000cc7565b92915050565b6114d68062000d426000396000f3fe608060405234801561001057600080fd5b506004361061010b5760003560e01c8063715018a6116100a2578063a9059cbb11610071578063a9059cbb14610284578063dd62ed3e146102b4578063e45b8134146102e4578063f2fde38b14610302578063fe2ffa221461031e5761010b565b8063715018a6146102345780638da5cb5b1461023e57806395d89b411461025c57806399b3517f1461027a5761010b565b8063313ce567116100de578063313ce567146101ac57806340c10f19146101ca5780634465394a146101e657806370a08231146102045761010b565b806306fdde0314610110578063095ea7b31461012e57806318160ddd1461015e57806323b872dd1461017c575b600080fd5b61011861033a565b6040516101259190610fad565b60405180910390f35b61014860048036038101906101439190611068565b6103cc565b60405161015591906110c3565b60405180910390f35b6101666103ef565b60405161017391906110ed565b60405180910390f35b61019660048036038101906101919190611108565b6103f9565b6040516101a391906110c3565b60405180910390f35b6101b4610428565b6040516101c19190611177565b60405180910390f35b6101e460048036038101906101df9190611068565b610431565b005b6101ee610497565b6040516101fb91906110c3565b60405180910390f35b61021e60048036038101906102199190611192565b6104aa565b60405161022b91906110ed565b60405180910390f35b61023c6104f2565b005b610246610506565b60405161025391906111ce565b60405180910390f35b610264610530565b6040516102719190610fad565b60405180910390f35b6102826105c2565b005b61029e60048036038101906102999190611068565b6105e7565b6040516102ab91906110c3565b60405180910390f35b6102ce60048036038101906102c991906111e9565b61060a565b6040516102db91906110ed565b60405180910390f35b6102ec610691565b6040516102f991906110c3565b60405180910390f35b61031c60048036038101906103179190611192565b6106a4565b005b61033860048036038101906103339190611255565b61072a565b005b606060038054610349906112b1565b80601f0160208091040260200160405190810160405280929190818152602001828054610375906112b1565b80156103c25780601f10610397576101008083540402835291602001916103c2565b820191906000526020600020905b8154815290600101906020018083116103a557829003601f168201915b5050505050905090565b6000806103d761074f565b90506103e4818585610757565b600191505092915050565b6000600254905090565b60008061040461074f565b9050610411858285610769565b61041c8585856107fe565b60019150509392505050565b60006012905090565b6104396108f2565b600560159054906101000a900460ff1615610489576040517f08c379a000000000000000000000000000000000000000000000000000000000815260040161048090611354565b60405180910390fd5b6104938282610979565b5050565b600560159054906101000a900460ff1681565b60008060008373ffffffffffffffffffffffffffffffffffffffff1673ffffffffffffffffffffffffffffffffffffffff168152602001908152602001600020549050919050565b6104fa6108f2565b61050460006109fb565b565b6000600560009054906101000a900473ffffffffffffffffffffffffffffffffffffffff16905090565b60606004805461053f906112b1565b80601f016020809104026020016040519081016040528092919081815260200182805461056b906112b1565b80156105b85780601f1061058d576101008083540402835291602001916105b8565b820191906000526020600020905b81548152906001019060200180831161059b57829003601f168201915b5050505050905090565b6105ca6108f2565b6001600560156101000a81548160ff021916908315150217905550565b6000806105f261074f565b90506105ff8185856107fe565b600191505092915050565b6000600160008473ffffffffffffffffffffffffffffffffffffffff1673ffffffffffffffffffffffffffffffffffffffff16815260200190815260200160002060008373ffffffffffffffffffffffffffffffffffffffff1673ffffffffffffffffffffffffffffffffffffffff16815260200190815260200160002054905092915050565b600560149054906101000a900460ff1681565b6106ac6108f2565b600073ffffffffffffffffffffffffffffffffffffffff168173ffffffffffffffffffffffffffffffffffffffff160361071e5760006040517f1e4fbdf700000000000000000000000000000000000000000000000000000000815260040161071591906111ce565b60405180910390fd5b610727816109fb565b50565b6107326108f2565b80600560146101000a81548160ff02191690831515021790555050565b600033905090565b6107648383836001610ac1565b505050565b6000610775848461060a565b90507fffffffffffffffffffffffffffffffffffffffffffffffffffffffffffffffff8110156107f857818110156107e8578281836040517ffb8f41b20000000000000000000000000000000000000000000000000000000081526004016107df93929190611374565b60405180910390fd5b6107f784848484036000610ac1565b5b50505050565b600073ffffffffffffffffffffffffffffffffffffffff168373ffffffffffffffffffffffffffffffffffffffff16036108705760006040517f96c6fd1e00000000000000000000000000000000000000000000000000000000815260040161086791906111ce565b60405180910390fd5b600073ffffffffffffffffffffffffffffffffffffffff168273ffffffffffffffffffffffffffffffffffffffff16036108e25760006040517fec442f050000000000000000000000000000000000000000000000000000000081526004016108d991906111ce565b60405180910390fd5b6108ed838383610c98565b505050565b6108fa61074f565b73ffffffffffffffffffffffffffffffffffffffff16610918610506565b73ffffffffffffffffffffffffffffffffffffffff16146109775761093b61074f565b6040517f118cdaa700000000000000000000000000000000000000000000000000000000815260040161096e91906111ce565b60405180910390fd5b565b600073ffffffffffffffffffffffffffffffffffffffff168273ffffffffffffffffffffffffffffffffffffffff16036109eb5760006040517fec442f050000000000000000000000000000000000000000000000000000000081526004016109e291906111ce565b60405180910390fd5b6109f760008383610c98565b5050565b6000600560009054906101000a900473ffffffffffffffffffffffffffffffffffffffff16905081600560006101000a81548173ffffffffffffffffffffffffffffffffffffffff021916908373ffffffffffffffffffffffffffffffffffffffff1602179055508173ffffffffffffffffffffffffffffffffffffffff168173ffffffffffffffffffffffffffffffffffffffff167f8be0079c531659141344cd1fd0a4f28419497f9722a3daafe3b4186f6b6457e060405160405180910390a35050565b600073ffffffffffffffffffffffffffffffffffffffff168473ffffffffffffffffffffffffffffffffffffffff1603610b335760006040517fe602df05000000000000000000000000000000000000000000000000000000008152600401610b2a91906111ce565b60405180910390fd5b600073ffffffffffffffffffffffffffffffffffffffff168373ffffffffffffffffffffffffffffffffffffffff1603610ba55760006040517f94280d62000000000000000000000000000000000000000000000000000000008152600401610b9c91906111ce565b60405180910390fd5b81600160008673ffffffffffffffffffffffffffffffffffffffff1673ffffffffffffffffffffffffffffffffffffffff16815260200190815260200160002060008573ffffffffffffffffffffffffffffffffffffffff1673ffffffffffffffffffffffffffffffffffffffff168152602001908152602001600020819055508015610c92578273ffffffffffffffffffffffffffffffffffffffff168473ffffffffffffffffffffffffffffffffffffffff167f8c5be1e5ebec7d5bd14f71427d1e84f3dd0314c0f7b2291e5b200ac8c7c3b92584604051610c8991906110ed565b60405180910390a35b50505050565b600560149054906101000a900460ff1615610ce8576040517f08c379a0000000000000000000000000000000000000000000000000000000008152600401610cdf9061141d565b60405180910390fd5b610cf3838383610cf8565b505050565b600073ffffffffffffffffffffffffffffffffffffffff168373ffffffffffffffffffffffffffffffffffffffff1603610d4a578060026000828254610d3e919061146c565b92505081905550610e1d565b60008060008573ffffffffffffffffffffffffffffffffffffffff1673ffffffffffffffffffffffffffffffffffffffff16815260200190815260200160002054905081811015610dd6578381836040517fe450d38c000000000000000000000000000000000000000000000000000000008152600401610dcd93929190611374565b60405180910390fd5b8181036000808673ffffffffffffffffffffffffffffffffffffffff1673ffffffffffffffffffffffffffffffffffffffff16815260200190815260200160002081905550505b600073ffffffffffffffffffffffffffffffffffffffff168273ffffffffffffffffffffffffffffffffffffffff1603610e665780600260008282540392505081905550610eb3565b806000808473ffffffffffffffffffffffffffffffffffffffff1673ffffffffffffffffffffffffffffffffffffffff168152602001908152602001600020600082825401925050819055505b8173ffffffffffffffffffffffffffffffffffffffff168373ffffffffffffffffffffffffffffffffffffffff167fddf252ad1be2c89b69c2b068fc378daa952ba7f163c4a11628f55a4df523b3ef83604051610f1091906110ed565b60405180910390a3505050565b600081519050919050565b600082825260208201905092915050565b60005b83811015610f57578082015181840152602081019050610f3c565b60008484015250505050565b6000601f19601f8301169050919050565b6000610f7f82610f1d565b610f898185610f28565b9350610f99818560208601610f39565b610fa281610f63565b840191505092915050565b60006020820190508181036000830152610fc78184610f74565b905092915050565b600080fd5b600073ffffffffffffffffffffffffffffffffffffffff82169050919050565b6000610fff82610fd4565b9050919050565b61100f81610ff4565b811461101a57600080fd5b50565b60008135905061102c81611006565b92915050565b6000819050919050565b61104581611032565b811461105057600080fd5b50565b6000813590506110628161103c565b92915050565b6000806040838503121561107f5761107e610fcf565b5b600061108d8582860161101d565b925050602061109e85828601611053565b9150509250929050565b60008115159050919050565b6110bd816110a8565b82525050565b60006020820190506110d860008301846110b4565b92915050565b6110e781611032565b82525050565b600060208201905061110260008301846110de565b92915050565b60008060006060848603121561112157611120610fcf565b5b600061112f8682870161101d565b93505060206111408682870161101d565b925050604061115186828701611053565b9150509250925092565b600060ff82169050919050565b6111718161115b565b82525050565b600060208201905061118c6000830184611168565b92915050565b6000602082840312156111a8576111a7610fcf565b5b60006111b68482850161101d565b91505092915050565b6111c881610ff4565b82525050565b60006020820190506111e360008301846111bf565b92915050565b60008060408385031215611200576111ff610fcf565b5b600061120e8582860161101d565b925050602061121f8582860161101d565b9150509250929050565b611232816110a8565b811461123d57600080fd5b50565b60008135905061124f81611229565b92915050565b60006020828403121561126b5761126a610fcf565b5b600061127984828501611240565b91505092915050565b7f4e487b7100000000000000000000000000000000000000000000000000000000600052602260045260246000fd5b600060028204905060018216806112c957607f821691505b6020821081036112dc576112db611282565b5b50919050565b7f4d79546f6b656e3a204d696e74696e6720686173206265656e207265766f6b6560008201527f6400000000000000000000000000000000000000000000000000000000000000602082015250565b600061133e602183610f28565b9150611349826112e2565b604082019050919050565b6000602082019050818103600083015261136d81611331565b9050919050565b600060608201905061138960008301866111bf565b61139660208301856110de565b6113a360408301846110de565b949350505050565b7f4d79546f6b656e3a205472616e7366657273206172652063757272656e746c7960008201527f2066726f7a656e00000000000000000000000000000000000000000000000000602082015250565b6000611407602783610f28565b9150611412826113ab565b604082019050919050565b60006020820190508181036000830152611436816113fa565b9050919050565b7f4e487b7100000000000000000000000000000000000000000000000000000000600052601160045260246000fd5b600061147782611032565b915061148283611032565b925082820190508082111561149a5761149961143d565b5b9291505056fea2646970667358221220adca823e6ddd29363b3af1f193b5847c286fb651788f300c2b09da845900f76564736f6c63430008140033a2646970667358221220d09c0b2fd342c777fd0b8a926be2a177155c4963b76263c75f4c5fbabef2f91464736f6c63430008140033",
  "linkReferences": {},
  "deployedLinkReferences": {}
}